{
  "contractName": "Wallet",
  "abi": [
    {
      "inputs": [
        {
          "internalType": "address[]",
          "name": "_owners",
          "type": "address[]"
        },
        {
          "internalType": "uint256",
          "name": "_limit",
          "type": "uint256"
        }
      ],
      "payable": false,
      "stateMutability": "nonpayable",
      "type": "constructor"
    },
    {
      "anonymous": false,
      "inputs": [
        {
          "indexed": false,
          "internalType": "uint256",
          "name": "id",
          "type": "uint256"
        },
        {
          "indexed": false,
          "internalType": "bool",
          "name": "",
          "type": "bool"
        }
      ],
      "name": "ApprovalRecevied",
      "type": "event"
    },
    {
      "anonymous": false,
      "inputs": [
        {
          "indexed": false,
          "internalType": "uint256",
          "name": "amount",
          "type": "uint256"
        },
        {
          "indexed": false,
          "internalType": "address",
          "name": "from",
          "type": "address"
        },
        {
          "indexed": false,
          "internalType": "address",
          "name": "to",
          "type": "address"
        }
      ],
      "name": "CreateTransferRequest",
      "type": "event"
    },
    {
      "anonymous": false,
      "inputs": [
        {
          "indexed": false,
          "internalType": "address",
          "name": "_from",
          "type": "address"
        },
        {
          "indexed": false,
          "internalType": "uint256",
          "name": "limit",
          "type": "uint256"
        }
      ],
      "name": "TransferApproved",
      "type": "event"
    },
    {
      "constant": true,
      "inputs": [
        {
          "internalType": "uint256",
          "name": "",
          "type": "uint256"
        }
      ],
      "name": "owners",
      "outputs": [
        {
          "internalType": "address",
          "name": "",
          "type": "address"
        }
      ],
      "payable": false,
      "stateMutability": "view",
      "type": "function"
    },
    {
      "constant": false,
      "inputs": [],
      "name": "deposit",
      "outputs": [],
      "payable": true,
      "stateMutability": "payable",
      "type": "function"
    },
    {
      "constant": false,
      "inputs": [
        {
          "internalType": "uint256",
          "name": "_amount",
          "type": "uint256"
        },
        {
          "internalType": "address payable",
          "name": "_sender",
          "type": "address"
        },
        {
          "internalType": "address payable",
          "name": "_receiver",
          "type": "address"
        }
      ],
      "name": "supplyChainTransferRequests",
      "outputs": [],
      "payable": false,
      "stateMutability": "nonpayable",
      "type": "function"
    },
    {
      "constant": false,
      "inputs": [
        {
          "internalType": "uint256",
          "name": "_id",
          "type": "uint256"
        }
      ],
      "name": "approve",
      "outputs": [],
      "payable": false,
      "stateMutability": "nonpayable",
      "type": "function"
    },
    {
      "constant": true,
      "inputs": [],
      "name": "SupplytransferRequests",
      "outputs": [
        {
          "components": [
            {
              "internalType": "uint256",
              "name": "amount",
              "type": "uint256"
            },
            {
              "internalType": "address payable",
              "name": "sender",
              "type": "address"
            },
            {
              "internalType": "address payable",
              "name": "receiver",
              "type": "address"
            },
            {
              "internalType": "uint256",
              "name": "approvals",
              "type": "uint256"
            },
            {
              "internalType": "bool",
              "name": "hasBeenSent",
              "type": "bool"
            },
            {
              "internalType": "uint256",
              "name": "id",
              "type": "uint256"
            }
          ],
          "internalType": "struct Wallet.Transfer[]",
          "name": "",
          "type": "tuple[]"
        }
      ],
      "payable": false,
      "stateMutability": "view",
      "type": "function"
    },
    {
      "constant": true,
      "inputs": [
        {
          "internalType": "uint256",
          "name": "amount",
          "type": "uint256"
        }
      ],
      "name": "getBalance",
      "outputs": [
        {
          "internalType": "uint256",
          "name": "",
          "type": "uint256"
        }
      ],
      "payable": false,
      "stateMutability": "view",
      "type": "function"
    }
  ],
  "bytecode": "0x60806040523480156200001157600080fd5b5060405162000f4538038062000f458339818101604052620000379190810190620000fa565b50506200021d565b6000815190506200005081620001e9565b92915050565b600082601f8301126200006857600080fd5b81516200007f620000798262000182565b62000154565b91508181835260208401935060208101905083856020840282011115620000a557600080fd5b60005b83811015620000d95781620000be88826200003f565b845260208401935060208301925050600181019050620000a8565b5050505092915050565b600081519050620000f48162000203565b92915050565b600080604083850312156200010e57600080fd5b600083015167ffffffffffffffff8111156200012957600080fd5b620001378582860162000056565b92505060206200014a85828601620000e3565b9150509250929050565b6000604051905081810181811067ffffffffffffffff821117156200017857600080fd5b8060405250919050565b600067ffffffffffffffff8211156200019a57600080fd5b602082029050602081019050919050565b6000620001b882620001bf565b9050919050565b600073ffffffffffffffffffffffffffffffffffffffff82169050919050565b6000819050919050565b620001f481620001ab565b81146200020057600080fd5b50565b6200020e81620001df565b81146200021a57600080fd5b50565b610d18806200022d6000396000f3fe6080604052600436106100555760003560e01c8063025e7c271461005a5780631e010439146100975780633741475f146100d4578063b759f954146100fd578063d0e30db014610126578063fb8215aa14610130575b600080fd5b34801561006657600080fd5b50610081600480360361007c919081019061092b565b61015b565b60405161008e9190610afd565b60405180910390f35b3480156100a357600080fd5b506100be60048036036100b9919081019061092b565b610197565b6040516100cb9190610b63565b60405180910390f35b3480156100e057600080fd5b506100fb60048036036100f69190810190610954565b6101ee565b005b34801561010957600080fd5b50610124600480360361011f919081019061092b565b61046d565b005b61012e6107bb565b005b34801561013c57600080fd5b506101456107bd565b6040516101529190610b41565b60405180910390f35b6000818154811061016857fe5b906000526020600020016000915054906101000a900473ffffffffffffffffffffffffffffffffffffffff1681565b60008082815481106101a557fe5b9060005260206000200160009054906101000a900473ffffffffffffffffffffffffffffffffffffffff1673ffffffffffffffffffffffffffffffffffffffff16319050919050565b600080905060008090505b600080549050811015610283573373ffffffffffffffffffffffffffffffffffffffff166000828154811061022a57fe5b9060005260206000200160009054906101000a900473ffffffffffffffffffffffffffffffffffffffff1673ffffffffffffffffffffffffffffffffffffffff16141561027657600191505b80806001019150506101f9565b50600115158115151461029557600080fd5b8173ffffffffffffffffffffffffffffffffffffffff163373ffffffffffffffffffffffffffffffffffffffff1614156102ce57600080fd5b60026040518060c001604052808681526020018573ffffffffffffffffffffffffffffffffffffffff1681526020018473ffffffffffffffffffffffffffffffffffffffff16815260200160008152602001600015158152602001600280549050815250908060018154018082558091505090600182039060005260206000209060060201600090919290919091506000820151816000015560208201518160010160006101000a81548173ffffffffffffffffffffffffffffffffffffffff021916908373ffffffffffffffffffffffffffffffffffffffff16021790555060408201518160020160006101000a81548173ffffffffffffffffffffffffffffffffffffffff021916908373ffffffffffffffffffffffffffffffffffffffff1602179055506060820151816003015560808201518160040160006101000a81548160ff02191690831515021790555060a082015181600501555050507f68e5d86d1f316884b77ee2d36b612d9e3766a2cdf6fc4693c7d608a4a155637184338460405161045f93929190610b7e565b60405180910390a150505050565b600080905060008090505b600080549050811015610502573373ffffffffffffffffffffffffffffffffffffffff16600082815481106104a957fe5b9060005260206000200160009054906101000a900473ffffffffffffffffffffffffffffffffffffffff1673ffffffffffffffffffffffffffffffffffffffff1614156104f557600191505b8080600101915050610478565b50600115158115151461051457600080fd5b60001515600360003373ffffffffffffffffffffffffffffffffffffffff1673ffffffffffffffffffffffffffffffffffffffff168152602001908152602001600020600084815260200190815260200160002060009054906101000a900460ff1615151461058257600080fd5b600015156002838154811061059357fe5b906000526020600020906006020160040160009054906101000a900460ff161515146105be57600080fd5b6001600360003373ffffffffffffffffffffffffffffffffffffffff1673ffffffffffffffffffffffffffffffffffffffff168152602001908152602001600020600084815260200190815260200160002060006101000a81548160ff0219169083151502179055506002828154811061063457fe5b9060005260206000209050506001546002838154811061065057fe5b906000526020600020906006020160030154106107b75760016002838154811061067657fe5b906000526020600020906006020160040160006101000a81548160ff021916908315150217905550600282815481106106ab57fe5b906000526020600020906006020160020160009054906101000a900473ffffffffffffffffffffffffffffffffffffffff1673ffffffffffffffffffffffffffffffffffffffff166108fc6002848154811061070357fe5b9060005260206000209060060201600001549081150290604051600060405180830381858888f19350505050158015610740573d6000803e3d6000fd5b507f25bb8283de39929039ae31521cb5c11a164c4bfe4fb1608dc63a8c25a373c7d5826001604051610773929190610bb5565b60405180910390a17f2248db8fc3cbad4bd7ff2629fce16f88218a96312696734b7c8ce570d7b15937336001546040516107ae929190610b18565b60405180910390a15b5050565b565b60606002805480602002602001604051908101604052809291908181526020016000905b828210156108f857838290600052602060002090600602016040518060c0016040529081600082015481526020016001820160009054906101000a900473ffffffffffffffffffffffffffffffffffffffff1673ffffffffffffffffffffffffffffffffffffffff1673ffffffffffffffffffffffffffffffffffffffff1681526020016002820160009054906101000a900473ffffffffffffffffffffffffffffffffffffffff1673ffffffffffffffffffffffffffffffffffffffff1673ffffffffffffffffffffffffffffffffffffffff168152602001600382015481526020016004820160009054906101000a900460ff16151515158152602001600582015481525050815260200190600101906107e1565b50505050905090565b60008135905061091081610ca7565b92915050565b60008135905061092581610cbe565b92915050565b60006020828403121561093d57600080fd5b600061094b84828501610916565b91505092915050565b60008060006060848603121561096957600080fd5b600061097786828701610916565b935050602061098886828701610901565b925050604061099986828701610901565b9150509250925092565b60006109af8383610a64565b60c08301905092915050565b6109c481610c71565b82525050565b6109d381610c29565b82525050565b6109e281610c17565b82525050565b60006109f382610bee565b6109fd8185610c06565b9350610a0883610bde565b8060005b83811015610a39578151610a2088826109a3565b9750610a2b83610bf9565b925050600181019050610a0c565b5085935050505092915050565b610a4f81610c3b565b82525050565b610a5e81610c3b565b82525050565b60c082016000820151610a7a6000850182610adf565b506020820151610a8d60208501826109ca565b506040820151610aa060408501826109ca565b506060820151610ab36060850182610adf565b506080820151610ac66080850182610a46565b5060a0820151610ad960a0850182610adf565b50505050565b610ae881610c67565b82525050565b610af781610c67565b82525050565b6000602082019050610b1260008301846109d9565b92915050565b6000604082019050610b2d60008301856109bb565b610b3a6020830184610aee565b9392505050565b60006020820190508181036000830152610b5b81846109e8565b905092915050565b6000602082019050610b786000830184610aee565b92915050565b6000606082019050610b936000830186610aee565b610ba060208301856109bb565b610bad60408301846109bb565b949350505050565b6000604082019050610bca6000830185610aee565b610bd76020830184610a55565b9392505050565b6000819050602082019050919050565b600081519050919050565b6000602082019050919050565b600082825260208201905092915050565b6000610c2282610c47565b9050919050565b6000610c3482610c47565b9050919050565b60008115159050919050565b600073ffffffffffffffffffffffffffffffffffffffff82169050919050565b6000819050919050565b6000610c7c82610c83565b9050919050565b6000610c8e82610c95565b9050919050565b6000610ca082610c47565b9050919050565b610cb081610c29565b8114610cbb57600080fd5b50565b610cc781610c67565b8114610cd257600080fd5b5056fea365627a7a7231582073ec2f8781d69f0d87d85d3a2f1ea30aea516590255f480c2b86a88c70d0d9a16c6578706572696d656e74616cf564736f6c63430005100040",
  "source": "    // SPDX-License-Identifier: MIT\r\npragma solidity >=0.4.22 <0.9.0;\r\n    pragma experimental ABIEncoderV2;\r\n    contract Wallet {\r\n    address[] public owners;\r\n    uint limit;\r\n    event CreateTransferRequest(uint amount, address from, address to);\r\n    event ApprovalRecevied(uint id, bool);\r\n\r\n    event TransferApproved(address _from, uint limit);\r\n    struct Transfer{\r\n    uint amount;\r\n    address payable sender;\r\n    address payable receiver;\r\n    uint approvals;\r\n    bool hasBeenSent;\r\n    uint id;\r\n}\r\n\r\n    Transfer[] transferRequests;\r\n    mapping(address => mapping(uint => bool)) approvals;\r\n//Should only allow people in the owners list to continue the execution\r\n    modifier onlyOwners(){\r\n    bool owner=false;\r\n    for(uint i=0; i<owners.length; i++){\r\n\r\n    if(owners[i]==msg.sender){\r\n    owner=true;\r\n    }\r\n}\r\n    require(owner==true);\r\n    _;\r\n}\r\n//Should initialize the owners list and the limit\r\n    constructor(address[] memory _owners, uint _limit) public {\r\n\r\n}\r\n\r\n//Empty function\r\n    function deposit() public payable {}\r\n//Create an instance of the Transfer struct and add it to the transferRequests array\r\n\r\n    function supplyChainTransferRequests(uint _amount, address payable _sender, address payable _receiver) public onlyOwners {\r\n    require(msg.sender != _receiver);\r\n\r\n    transferRequests.push(\r\n    Transfer(_amount, _sender, _receiver, 0, false, transferRequests.length));\r\n    emit CreateTransferRequest(_amount, msg.sender, _receiver);\r\n}\r\n//Set your approval for one of the tranfer requests.\r\n//Need to update the Transfer object.\r\n//Need to update the mapping to record the approval for the msg.sender.\r\n//When the amount of approvals for a transfer has reached the limit, this function should send the transfer to the recipient.\r\n//An owner should not be able to vote twice\r\n//An owner should not be able to vote on a transfer request that has already been sent.\r\n    function approve(uint _id) public onlyOwners{\r\n    require (approvals[msg.sender][_id]==false);\r\n    require(transferRequests[_id].hasBeenSent == false);\r\n    approvals[msg.sender][_id]=true;\r\n    transferRequests[_id].approvals;\r\nif(transferRequests[_id].approvals>=limit){\r\n    transferRequests[_id].hasBeenSent=true;\r\n    transferRequests[_id].receiver.transfer(transferRequests[_id].amount);\r\nemit ApprovalRecevied(_id, true);\r\nemit TransferApproved(msg.sender, limit);\r\n    }\r\n}\r\n//Should return all transfer requests\r\n    function SupplytransferRequests() public view returns (Transfer[] memory){\r\n    return transferRequests;\r\n}\r\n\r\n    function getBalance(uint amount) public view returns (uint) {\r\n    return owners[amount].balance;\r\n    }\r\n}",
  "sourcePath": "C:/Users/samue/SolidityCode/Truffle/helloworld/contracts/MultiSigWallet.sol",
  "compiler": {
    "name": "solc",
    "version": "0.5.16+commit.9c3226ce.Emscripten.clang"
  },
  "schemaVersion": "3.3.4",
  "updatedAt": "2021-04-23T22:06:57.740Z",
  "devdoc": {
    "methods": {}
  },
  "userdoc": {
    "methods": {}
  }
}